{
  "contractName": "Test",
  "abi": [
    {
      "inputs": [],
      "payable": false,
      "stateMutability": "nonpayable",
      "type": "constructor"
    },
    {
      "payable": true,
      "stateMutability": "payable",
      "type": "fallback"
    },
    {
      "constant": false,
      "inputs": [],
      "name": "increase",
      "outputs": [],
      "payable": false,
      "stateMutability": "nonpayable",
      "type": "function"
    },
    {
      "constant": false,
      "inputs": [],
      "name": "decrease",
      "outputs": [],
      "payable": false,
      "stateMutability": "nonpayable",
      "type": "function"
    },
    {
      "constant": true,
      "inputs": [],
      "name": "getCount",
      "outputs": [
        {
          "internalType": "uint256",
          "name": "",
          "type": "uint256"
        }
      ],
      "payable": false,
      "stateMutability": "view",
      "type": "function"
    }
  ],
  "bytecode": "0x608060405234801561001057600080fd5b5033600160006101000a81548173ffffffffffffffffffffffffffffffffffffffff021916908373ffffffffffffffffffffffffffffffffffffffff16021790555060e7806100606000396000f3fe60806040526004361060305760003560e01c8063a87d942c146032578063d732d95514605a578063e8927fbc14606e575b005b348015603d57600080fd5b5060446082565b6040518082815260200191505060405180910390f35b348015606557600080fd5b50606c608b565b005b348015607957600080fd5b506080609f565b005b60008054905090565b600080815480929190600190039190505550565b600080815480929190600101919050555056fea265627a7a7231582042a8dee3a12251d9db1c655885a2e5ca1d8453d9e31d99fd4c1bb9fae92a107b64736f6c63430005100032",
  "source": "pragma solidity >=0.5.0 <0.8.0;\r\n\r\ncontract Test{\r\n    uint private count;\r\n    address private owner;\r\n\r\n    constructor() public{\r\n        owner = msg.sender;\r\n    }\r\n\r\n    function increase() public {\r\n        count++;\r\n    }\r\n\r\n    function decrease() public{\r\n        count--;\r\n    }\r\n\r\n    function getCount() public view returns (uint){\r\n        return count;\r\n    }\r\n\r\n    function() payable external{}\r\n}",
  "sourcePath": "/mnt/c/blockchain/social-recovery-wallets/soc-rec-wallets/src/contracts/Test.sol",
  "compiler": {
    "name": "solc",
    "version": "0.5.16+commit.9c3226ce.Emscripten.clang"
  },
  "schemaVersion": "3.3.3",
  "updatedAt": "2021-01-26T09:48:44.758Z",
  "networkType": "ethereum",
  "devdoc": {
    "methods": {}
  },
  "userdoc": {
    "methods": {}
  }
}