{
  "contractName": "Test",
  "abi": [
    {
      "inputs": [],
      "payable": false,
      "stateMutability": "nonpayable",
      "type": "constructor"
    },
    {
      "anonymous": false,
      "inputs": [],
      "name": "Increment",
      "type": "event"
    },
    {
      "payable": true,
      "stateMutability": "payable",
      "type": "fallback"
    },
    {
      "constant": false,
      "inputs": [],
      "name": "increase",
      "outputs": [
        {
          "internalType": "uint256",
          "name": "",
          "type": "uint256"
        }
      ],
      "payable": false,
      "stateMutability": "nonpayable",
      "type": "function"
    },
    {
      "constant": false,
      "inputs": [],
      "name": "decrease",
      "outputs": [],
      "payable": false,
      "stateMutability": "nonpayable",
      "type": "function"
    },
    {
      "constant": true,
      "inputs": [],
      "name": "getCount",
      "outputs": [
        {
          "internalType": "uint256",
          "name": "",
          "type": "uint256"
        }
      ],
      "payable": false,
      "stateMutability": "view",
      "type": "function"
    }
  ],
  "bytecode": "0x608060405234801561001057600080fd5b5033600160006101000a81548173ffffffffffffffffffffffffffffffffffffffff021916908373ffffffffffffffffffffffffffffffffffffffff16021790555060fe806100606000396000f3fe60806040526004361060305760003560e01c8063a87d942c146032578063d732d95514605a578063e8927fbc14606e575b005b348015603d57600080fd5b5060446096565b6040518082815260200191505060405180910390f35b348015606557600080fd5b50606c609f565b005b348015607957600080fd5b50608060b3565b6040518082815260200191505060405180910390f35b60008054905090565b600080815480929190600190039190505550565b600060026000540160008190555060005490509056fea265627a7a723158207a401312fed35fed80135e3b0c86d968bd000361476aa8d03ad1d35ae662379c64736f6c63430005100032",
  "source": "pragma solidity >=0.5.0 <0.8.0;\r\n\r\ncontract Test{\r\n    uint private count;\r\n    address private owner;\r\n\r\n    // events\r\n    event Increment();\r\n\r\n\r\n    constructor() public{\r\n        owner = msg.sender;\r\n    }\r\n\r\n    function increase() public returns (uint){\r\n        count = count + 2;\r\n        return count;\r\n        emit Increment();\r\n\r\n    }\r\n\r\n    function decrease() public{\r\n        count--;\r\n    }\r\n\r\n    function getCount() public view returns (uint){\r\n        return count;\r\n    }\r\n\r\n    function() payable external{}\r\n}",
  "sourcePath": "/Users/midmoussi/Documents/recovery-wallet/social-recovery-wallets/soc-rec-wallets/src/contracts/Test.sol",
  "compiler": {
    "name": "solc",
    "version": "0.5.16+commit.9c3226ce.Emscripten.clang"
  },
  "schemaVersion": "3.3.3",
  "updatedAt": "2021-02-01T21:14:55.831Z",
  "networkType": "ethereum",
  "devdoc": {
    "methods": {}
  },
  "userdoc": {
    "methods": {}
  }
}